S012000050726F6A6563744953522E737265634D
S214080000F02507203D0908003909080039090800C5
S21408001039090800390908003909080000000000F5
S2140800200000000000000000000000003909080079
S21408003039090800000000003909080039090800D5
S214080040390908003909080039090800390908007B
S214080050390908003909080039090800390908006B
S214080060390908003909080000000000E5070800FB
S214080070F90708000D08080021080800000000001D
S2140800800000000039090800390908003909080085
S214080090390908003909080039090800390908002B
S2140800A03909080000000000390908002D04080076
S2140800B0390908003909080039090800DD0308006D
S2140800C039090800390908003909080039090800FB
S2140800D039090800390908003909080039090800EB
S2140800E039090800390908003909080039090800DB
S2140800F03909080010B5054C237833B9044B13B1F9
S2140801000448AFF300800123237010BD580507206C
S21408011000000000D40C080008B5064B1BB10648C2
S2140801200649AFF300800648036813B1054B03B1D0
S214080130984708BD00000000D40C08005C0507209E
S214080140D40C0800000000000123036070474368D1
S21408015011B143F0100301E023F0100343600020C0
S21408016070470129436806D823F4981343EA0141E7
S2140801704160002070470120704710B544680902A6
S21408018024F07C5424F47F4489B20C4312B144F41E
S214080190001401E024F400141B0603F07C531C43EF
S2140801A04460002010BD01294FF001039DBF8B401D
S2140801B00361002018467047034A136843F0254336
S2140801C043F0010313607047501A0E4010B58901BA
S2140801D00224431844504FF0FF319962196A5A6056
S2140801E010BDC0F8C41070478901052343507047F6
S2140801F0890102234350704700EB81110869704754
S21408020000EB8111CA61704700EB81114A627047A2
S214080210F0B5022487B0019408240294202403949D
S214080220802404940C9CE40B0594002401AD55F836
S2140802302450B1FBF5F6B0424FEA164704D8B84248
S21408024004D20134052CF1D1002004E002B1156077
S21408025003B11C60012007B0F0BD0000014B03602D
S214080260704700BF01474E5270B5104C104D2620FF
S214080270A84720460F4B9847204600210E4B984724
S21408028001210A46204600230C4EB047204600218E
S2140802900B4B984700210B4B2046984704462920CD
S2140802A0A8470948094B9847204670BD00800C406F
S2140802B0F5080800490108004F0108007B010800FE
S2140802C063010800A701080000C00B405D02080093
S2140802D07FB5184D0646184B1F209847174C2946D9
S2140802E002AA03AB00953046A047154C039A204651
S2140802F0012142F48042134B9847029A2046B5FBE8
S214080300F2F2B2FBF6F201210F4B98470F4B4FF073
S21408031000421A602046102201210D4B98472046BD
S21408032001210C4B98470C4B1A786FF303021A708E
S21408033004B070BD00BD0105F508080011020800EC
S21408034000400840CD0108000102080000E100E076
S21408035009020800E9010800E80507207FB5164DE0
S2140803600646164B1B209847154C294602AA03AB8F
S21408037000953046A047134C039A2046002142F4C5
S2140803808042114B9847029A2046B5FBF2F2B2FB20
S214080390F6F200210D4B98470D4B4FF000621A609D
S2140803A02046102200210B4B9847204600210A4B76
S2140803B0984704B070BD00BF00BD0105F5080800E9
S2140803C01102080000000840CD01080001020800DC
S2140803D000E100E009020800E90108000E4A82B0C0
S2140803E0117801F00F03581C60F3030111700B4AD3
S2140803F0116D40F22912B1FBF2F002FB1012084907
S214080400943A51F823301A44064B1A60064B1B6878
S2140804100193019B02B07047E805072000C00B4017
S214080420EC000720E405072060400840064A4FF025
S21408043080631360054A1168054A1162A2F5902286
S214080440126A044A1360704730100E40E40507200D
S21408045000800C4034100E4010B5094C094B232080
S2140804609847204600220221074B9847204600213D
S214080470064B984720460221054B984710BD00BFFB
S21408048000800840F5080800CD010800E3010800D0
S214080490F101080010B5094B0446022108489847A0
S2140804A02A235C4306480221064B9847A042F9D304
S2140804B003480221044B984710BD00BFE901080015
S2140804C000800840F9010800F101080010B50E4840
S2140804D00E4CA04700203E210D4B98470D4B9847E1
S2140804E00028FBD00C4B98470C4A0D4B9A620D4BD4
S2140804F098470028FBD00C4B102098470B4B984782
S2140805000148A04710BD00BF00BD010589000720AF
S21408051079080800C5080800D5080800013F0D201E
S21408052000060E40E508080035080800BD09080062
S214080530184B4FF4004210B50B205A60164CA047D3
S2140805400C20A0470D20A0470E20A047134C4FF0C4
S21408055060513B20A0474FF060515520A0474FF010
S21408056060515620A0470E496820A0470D495C20D8
S214080570A0474FF000620C4B4FF440710B48984769
S2140805804FF000612B20A0474FF000612A20A047BB
S21408059010BD00BF501A0E40F508080045060800B2
S2140805A0790000280100002809070800000E0E4000
S2140805B0B1F1805F426414D009D8B1B1B1F1006FCF
S2140805C012D1036F016F0B4023EA02030BE0B1F16F
S2140805D0405F0AD0B1F1605F07D0B1F1205F03D168
S2140805E07047036F1343036742607047D30741643D
S2140805F04CBF4166016612F00A0F14BF01624162E1
S214080600930702D5C0F8801003E0130748BFC0F868
S214080610841041610160704710B5029C41640CB1BA
S214080620416600E001660BB1016500E041650AB16C
S214080630016300E041630161016010BDC06C704752
S214080640806C7047F7B544090D4604F5001401F0B0
S214080650F04104F20774B1F1205F4FEA44242BD02E
S21408066014D8B1F1006F18D0B1F1805F42D100F014
S2140806701F03012000FA03F36364226F1A432267FC
S214080680EA0763604CBF6366236634E0B1F1405FF7
S2140806901CD0B1F1605F19D02CE000F01F000126D5
S2140806A006FA00F7154B20463A469847E9074CBF26
S2140806B06766276630461EE000F01F0101262046C2
S2140806C006FA01F12A460E4B9847F3E7012605F08D
S2140806D0605205EA06030093B2F160535A4200F0EE
S2140806E01F015A41204606FA01F1C5F38003054C5E
S2140806F0A047DFE7002003B0F0BD00BFB105080043
S214080700ED0508001906080002F0F043B3F1205F73
S21408071073B505460C4616461CD00BD8B3F1006FC9
S2140807200FD0B3F1805F29D16964036F0B43036769
S21408073069600AE0B3F1405F10D0B3F1605F0DD096
S2140807401CE0194622460F4B9847F2074CBF6C66CA
S2140807502C6601E00C4B9847012010E006F060522A
S21408076006F001030093B2F160535A4221465A41FB
S2140807702846C6F38003054CA047EDE7002002B0E4
S21408078070BD00BFB1050800ED0508001906080091
S214080790F8B5114B04460E469847104B05462046BA
S2140807A09847054016D00E4C04F1600754F80C3CE8
S2140807B0B3420AD154F8081C294206D023683046AA
S2140807C0984754F8083C25EA0305BC4202D0103482
S2140807D0002DEBD1F8BD00BF3D0608004106080015
S2140807E08005072008B502480B21024B984708BD2C
S2140807F0000E0E409107080008B502480C21024B6F
S214080800984708BD00100E409107080008B5024832
S2140808100D21024B984708BD00120E4091070800AC
S21408082008B502480E21024B984708BD00140E4032
S214080830910708000F4B1A6B22F0700210431863DA
S21408084040F60102986E0B49000703D4013AF9D125
S214080850012070470A6B22F0030242F002020A6384
S21408086040F60102996E090702D4013AFAD1EFE779
S2140808700020704700060E400F4B1A6A28B10F4931
S21408088011400F4A0A431A62704722F45C1222F09B
S214080890030242F45C12090242F0010289B20A43DA
S2140808A01A62996E044AC907FBD5136A43F09B730C
S2140808B043F480331362704700060E40FCFFC8FE00
S2140808C002003701024B986E00F48030704700BF74
S2140808D000060E40024B4FF000529A62704700BF67
S2140808E000060E40024B986E00F00200704700BFEC
S2140808F000060E402C2819D81F280E4B4FF0010270
S21408090008D802FA00F0996900EA010282420FD07C
S21408091018610DE0203802FA00F0D3F8081100EA52
S2140809200102824204D0C3F8000101E001207047AA
S2140809300020704700060E40FEE70000164B174AD8
S21408094010B593421C4601D0002301E0144B07E083
S2140809501449D0188842F9D2E158D1500433F7E741
S214080960114A934203D2002243F8042BF8E70F49B2
S2140809700F4B21F0604201F1604122F07F02B1F591
S214080980801F9A6003D29A6842F000529A60094B18
S2140809909847094B9847FEE7D40C08000000072044
S2140809A05805072058050720EC0507200000080012
S2140809B000ED00E0610B0800E10A080010B52C4ABB
S2140809C0136B03F00303012B2A4B0DD003D3116AD4
S2140809D0CC011AD525E02849496908064CBF4FF4CA
S2140809E000414FF4FA4130E0116AC9010BD423499B
S2140809F01960116A01F07001102902D0202902D06E
S214080A0024E01F4921E01F491FE01C491960116AAC
S214080A1001F07001102902D0202902D003E01849FD
S214080A2000E018491960116B114801F0030102290A
S214080A300AD1846A1968C4F30A4404FB0111806A5F
S214080A40C0B2B1FBF0F100E00F491960126B02F07A
S214080A507002702A04D11A680321B2FBF1F205E08D
S214080A60034A116B1A68C1F30211CA401A6010BD16
S214080A7000060E402C010720101A0E4000093D0003
S214080A8000127A00001BB700001C4E0E0D2814BF7B
S214080A901A231B23022908D101229A40034B1968FE
S214080AA01143196019690A431A61704700100E400D
S214080AB00D2814BF1A221B22012904D19140064B87
S214080AC01868084306E031B9012000FA02F2034B21
S214080AD0186810431860704730100E4034100E40E7
S214080AE038B5144B9847144B9847144B9847144CF2
S214080AF00D200221A04702211620A047114B4FF4D3
S214080B0009409847104C4FF46160A0470F4B4FF4CC
S214080B10094098470E4B98470E4B98470E4D0121B3
S214080B200D20A8470D48A0470D200021A8470B48D0
S214080B30A047F1E7CD04080031050800590408006D
S214080B408D0A08005D03080095040800D102080015
S214080B5069020800B9010800B10A0800B0710B0064
S214080B6070B50F4E0F4D761BB61007D0043D002407
S214080B70013455F8043F9847A642F9D10A4E0B4D62
S214080B8000F096F8761BB61008D0043D0024013411
S214080B9055F8043F9847A642F9D170BD70BD00BF0E
S214080BA0BC0C0800BC0C0800C40C0800BC0C0800F0
S214080BB0024B13B1024800F005B870470000000069
S214080BC0D10B0800014600200246034600F018B87C
S214080BD038B5094D094C641BA41018BF05EB8405ED
S214080BE005D0013C55F8043D9847002CF9D1BDE8DE
S214080BF0384000F067B800BFD00C0800D40C0800D6
S214080C00F0B5274C85B026680746D6F84841002C2C
S214080C1040D065681F2D1EDD224818B94FF0FF30FA
S214080C2005B0F0BD4FF4C870039102920193AFF37C
S214080C30008003990446029A019B0028EED0D6F855
S214080C4048510020256060600546C6F84841C4F84B
S214080C508801C4F88C013FB96B1C0020023563601C
S214080C6044F8251005B0F0BD0126AE4004EB85001B
S214080C70C0F88820D4F88821022F42EA0602C4F871
S214080C808821C0F80831E7D1D4F88C311E43C4F85F
S214080C908C61E1E706F5A674C6F84841B9E700BFD7
S214080CA0AC0C0800000000004300000030010720DC
S214080CB0F8B500BFF8BC08BC9E467047B10B0800E4
S214080CC019010800F8B500BFF8BC08BC9E46704776
S208080CD0F500080016
S214080CD41A4A4FF480631360C2F80032184B1A6A33
S214080CE4D20102D5174A1A6205E0174A1A629A6EA2
S214080CF4D007FCD5F6E7996E114AC903FBD5116BE4
S214080D0421F0030141F0010111639A6E1207FCD524
S214080D140E490B4A91629A6E9007FCD5084A11212F
S214080D2411639A6E1107FCD5054A122111639A6E4F
S214080D341207FCD5064A074B1A607047000A0E408D
S214080D4400060E400908370109083700013F0D2040
S214080D5400BD01052C010720114B124A9842124B7C
S214080D6401D8002118E01149884202D84FF480714E
S214080D7412E00F49884202D84FF400710CE00D497E
S214080D84884202D84FF4407106E00B49884294BF63
S214080D944FF480614FF4A06111601960704700BF7A
S214080DA4BFEA2101000A0E40000C0E407FF0FA024A
S214080DB4FF8FD003FFB3C4047F4A5D05E80600002E
S214080DC44D0800007A090000440A00008B0A000057
S214080DD4440A00007A0900004D080000E8060000EE
S214080DE484050000560400008C0300004603000037
S214080DF48C030000560400008405000000093D002A
S214080E04000000001C04072084040720EC040720C4
S214080E1400000000000000000000000000000000C1
S214080E2400000000000000000000000000000000B1
S214080E3400000000A80C08000000000000000000E5
S214080E440000000000000000000000000000000091
S214080E540000000000000000000000000000000081
S214080E640000000000000000000000000000000071
S214080E740000000000000000000000000000000061
S214080E840000000000000000000000000000000051
S214080E940000000000000000000000000000000041
S214080EA40000000000000000010000000000000030
S214080EB40E33CDAB34126DE6ECDE05000B000000F5
S214080EC40000000000000000000000000000000011
S214080ED40000000000000000000000000000000001
S214080EE400000000000000000000000000000000F1
S214080EF400000000000000000000000000000000E1
S80408093DAD
